{
  "abi": [
    {
      "type": "constructor",
      "inputs": [],
      "stateMutability": "nonpayable"
    },
    {
      "type": "function",
      "name": "approve",
      "inputs": [
        {
          "name": "to",
          "type": "address",
          "internalType": "address"
        },
        {
          "name": "tokenId",
          "type": "uint256",
          "internalType": "uint256"
        }
      ],
      "outputs": [],
      "stateMutability": "nonpayable"
    },
    {
      "type": "function",
      "name": "balanceOf",
      "inputs": [
        {
          "name": "owner",
          "type": "address",
          "internalType": "address"
        }
      ],
      "outputs": [
        {
          "name": "",
          "type": "uint256",
          "internalType": "uint256"
        }
      ],
      "stateMutability": "view"
    },
    {
      "type": "function",
      "name": "getApproved",
      "inputs": [
        {
          "name": "tokenId",
          "type": "uint256",
          "internalType": "uint256"
        }
      ],
      "outputs": [
        {
          "name": "",
          "type": "address",
          "internalType": "address"
        }
      ],
      "stateMutability": "view"
    },
    {
      "type": "function",
      "name": "getTotalMinted",
      "inputs": [],
      "outputs": [
        {
          "name": "",
          "type": "uint256",
          "internalType": "uint256"
        }
      ],
      "stateMutability": "view"
    },
    {
      "type": "function",
      "name": "isApprovedForAll",
      "inputs": [
        {
          "name": "owner",
          "type": "address",
          "internalType": "address"
        },
        {
          "name": "operator",
          "type": "address",
          "internalType": "address"
        }
      ],
      "outputs": [
        {
          "name": "",
          "type": "bool",
          "internalType": "bool"
        }
      ],
      "stateMutability": "view"
    },
    {
      "type": "function",
      "name": "mintNFT",
      "inputs": [
        {
          "name": "tokenURI",
          "type": "string",
          "internalType": "string"
        }
      ],
      "outputs": [
        {
          "name": "",
          "type": "uint256",
          "internalType": "uint256"
        }
      ],
      "stateMutability": "nonpayable"
    },
    {
      "type": "function",
      "name": "name",
      "inputs": [],
      "outputs": [
        {
          "name": "",
          "type": "string",
          "internalType": "string"
        }
      ],
      "stateMutability": "view"
    },
    {
      "type": "function",
      "name": "ownerOf",
      "inputs": [
        {
          "name": "tokenId",
          "type": "uint256",
          "internalType": "uint256"
        }
      ],
      "outputs": [
        {
          "name": "",
          "type": "address",
          "internalType": "address"
        }
      ],
      "stateMutability": "view"
    },
    {
      "type": "function",
      "name": "safeTransferFrom",
      "inputs": [
        {
          "name": "from",
          "type": "address",
          "internalType": "address"
        },
        {
          "name": "to",
          "type": "address",
          "internalType": "address"
        },
        {
          "name": "tokenId",
          "type": "uint256",
          "internalType": "uint256"
        }
      ],
      "outputs": [],
      "stateMutability": "nonpayable"
    },
    {
      "type": "function",
      "name": "safeTransferFrom",
      "inputs": [
        {
          "name": "from",
          "type": "address",
          "internalType": "address"
        },
        {
          "name": "to",
          "type": "address",
          "internalType": "address"
        },
        {
          "name": "tokenId",
          "type": "uint256",
          "internalType": "uint256"
        },
        {
          "name": "data",
          "type": "bytes",
          "internalType": "bytes"
        }
      ],
      "outputs": [],
      "stateMutability": "nonpayable"
    },
    {
      "type": "function",
      "name": "setApprovalForAll",
      "inputs": [
        {
          "name": "operator",
          "type": "address",
          "internalType": "address"
        },
        {
          "name": "approved",
          "type": "bool",
          "internalType": "bool"
        }
      ],
      "outputs": [],
      "stateMutability": "nonpayable"
    },
    {
      "type": "function",
      "name": "supportsInterface",
      "inputs": [
        {
          "name": "interfaceId",
          "type": "bytes4",
          "internalType": "bytes4"
        }
      ],
      "outputs": [
        {
          "name": "",
          "type": "bool",
          "internalType": "bool"
        }
      ],
      "stateMutability": "view"
    },
    {
      "type": "function",
      "name": "symbol",
      "inputs": [],
      "outputs": [
        {
          "name": "",
          "type": "string",
          "internalType": "string"
        }
      ],
      "stateMutability": "view"
    },
    {
      "type": "function",
      "name": "tokenURI",
      "inputs": [
        {
          "name": "tokenId",
          "type": "uint256",
          "internalType": "uint256"
        }
      ],
      "outputs": [
        {
          "name": "",
          "type": "string",
          "internalType": "string"
        }
      ],
      "stateMutability": "view"
    },
    {
      "type": "function",
      "name": "transferFrom",
      "inputs": [
        {
          "name": "from",
          "type": "address",
          "internalType": "address"
        },
        {
          "name": "to",
          "type": "address",
          "internalType": "address"
        },
        {
          "name": "tokenId",
          "type": "uint256",
          "internalType": "uint256"
        }
      ],
      "outputs": [],
      "stateMutability": "nonpayable"
    },
    {
      "type": "event",
      "name": "Approval",
      "inputs": [
        {
          "name": "owner",
          "type": "address",
          "indexed": true,
          "internalType": "address"
        },
        {
          "name": "approved",
          "type": "address",
          "indexed": true,
          "internalType": "address"
        },
        {
          "name": "tokenId",
          "type": "uint256",
          "indexed": true,
          "internalType": "uint256"
        }
      ],
      "anonymous": false
    },
    {
      "type": "event",
      "name": "ApprovalForAll",
      "inputs": [
        {
          "name": "owner",
          "type": "address",
          "indexed": true,
          "internalType": "address"
        },
        {
          "name": "operator",
          "type": "address",
          "indexed": true,
          "internalType": "address"
        },
        {
          "name": "approved",
          "type": "bool",
          "indexed": false,
          "internalType": "bool"
        }
      ],
      "anonymous": false
    },
    {
      "type": "event",
      "name": "BatchMetadataUpdate",
      "inputs": [
        {
          "name": "_fromTokenId",
          "type": "uint256",
          "indexed": false,
          "internalType": "uint256"
        },
        {
          "name": "_toTokenId",
          "type": "uint256",
          "indexed": false,
          "internalType": "uint256"
        }
      ],
      "anonymous": false
    },
    {
      "type": "event",
      "name": "MetadataUpdate",
      "inputs": [
        {
          "name": "_tokenId",
          "type": "uint256",
          "indexed": false,
          "internalType": "uint256"
        }
      ],
      "anonymous": false
    },
    {
      "type": "event",
      "name": "NFTMinted",
      "inputs": [
        {
          "name": "creator",
          "type": "address",
          "indexed": true,
          "internalType": "address"
        },
        {
          "name": "tokenId",
          "type": "uint256",
          "indexed": true,
          "internalType": "uint256"
        },
        {
          "name": "tokenURI",
          "type": "string",
          "indexed": false,
          "internalType": "string"
        }
      ],
      "anonymous": false
    },
    {
      "type": "event",
      "name": "Transfer",
      "inputs": [
        {
          "name": "from",
          "type": "address",
          "indexed": true,
          "internalType": "address"
        },
        {
          "name": "to",
          "type": "address",
          "indexed": true,
          "internalType": "address"
        },
        {
          "name": "tokenId",
          "type": "uint256",
          "indexed": true,
          "internalType": "uint256"
        }
      ],
      "anonymous": false
    },
    {
      "type": "error",
      "name": "ERC721IncorrectOwner",
      "inputs": [
        {
          "name": "sender",
          "type": "address",
          "internalType": "address"
        },
        {
          "name": "tokenId",
          "type": "uint256",
          "internalType": "uint256"
        },
        {
          "name": "owner",
          "type": "address",
          "internalType": "address"
        }
      ]
    },
    {
      "type": "error",
      "name": "ERC721InsufficientApproval",
      "inputs": [
        {
          "name": "operator",
          "type": "address",
          "internalType": "address"
        },
        {
          "name": "tokenId",
          "type": "uint256",
          "internalType": "uint256"
        }
      ]
    },
    {
      "type": "error",
      "name": "ERC721InvalidApprover",
      "inputs": [
        {
          "name": "approver",
          "type": "address",
          "internalType": "address"
        }
      ]
    },
    {
      "type": "error",
      "name": "ERC721InvalidOperator",
      "inputs": [
        {
          "name": "operator",
          "type": "address",
          "internalType": "address"
        }
      ]
    },
    {
      "type": "error",
      "name": "ERC721InvalidOwner",
      "inputs": [
        {
          "name": "owner",
          "type": "address",
          "internalType": "address"
        }
      ]
    },
    {
      "type": "error",
      "name": "ERC721InvalidReceiver",
      "inputs": [
        {
          "name": "receiver",
          "type": "address",
          "internalType": "address"
        }
      ]
    },
    {
      "type": "error",
      "name": "ERC721InvalidSender",
      "inputs": [
        {
          "name": "sender",
          "type": "address",
          "internalType": "address"
        }
      ]
    },
    {
      "type": "error",
      "name": "ERC721NonexistentToken",
      "inputs": [
        {
          "name": "tokenId",
          "type": "uint256",
          "internalType": "uint256"
        }
      ]
    }
  ],
  "bytecode": {
    "object": "0x608060405234801561000f575f5ffd5b506040518060400160405280600f81526020017f43727970746f43616e7661734e465400000000000000000000000000000000008152506040518060400160405280600581526020017f43434e4654000000000000000000000000000000000000000000000000000000815250815f908161008a91906102e7565b50806001908161009a91906102e7565b50505060016007819055506103b6565b5f81519050919050565b7f4e487b71000000000000000000000000000000000000000000000000000000005f52604160045260245ffd5b7f4e487b71000000000000000000000000000000000000000000000000000000005f52602260045260245ffd5b5f600282049050600182168061012557607f821691505b602082108103610138576101376100e1565b5b50919050565b5f819050815f5260205f209050919050565b5f6020601f8301049050919050565b5f82821b905092915050565b5f6008830261019a7fffffffffffffffffffffffffffffffffffffffffffffffffffffffffffffffff8261015f565b6101a4868361015f565b95508019841693508086168417925050509392505050565b5f819050919050565b5f819050919050565b5f6101e86101e36101de846101bc565b6101c5565b6101bc565b9050919050565b5f819050919050565b610201836101ce565b61021561020d826101ef565b84845461016b565b825550505050565b5f5f905090565b61022c61021d565b6102378184846101f8565b505050565b5b8181101561025a5761024f5f82610224565b60018101905061023d565b5050565b601f82111561029f576102708161013e565b61027984610150565b81016020851015610288578190505b61029c61029485610150565b83018261023c565b50505b505050565b5f82821c905092915050565b5f6102bf5f19846008026102a4565b1980831691505092915050565b5f6102d783836102b0565b9150826002028217905092915050565b6102f0826100aa565b67ffffffffffffffff811115610309576103086100b4565b5b610313825461010e565b61031e82828561025e565b5f60209050601f83116001811461034f575f841561033d578287015190505b61034785826102cc565b8655506103ae565b601f19841661035d8661013e565b5f5b828110156103845784890151825560018201915060208501945060208101905061035f565b868310156103a1578489015161039d601f8916826102b0565b8355505b6001600288020188555050505b505050505050565b612349806103c35f395ff3fe608060405234801561000f575f5ffd5b50600436106100f3575f3560e01c80636352211e11610095578063b88d4fde11610064578063b88d4fde14610281578063c87b56dd1461029d578063e985e9c5146102cd578063fb37e883146102fd576100f3565b80636352211e146101e757806370a082311461021757806395d89b4114610247578063a22cb46514610265576100f3565b8063095ea7b3116100d1578063095ea7b3146101755780630ca1c5c91461019157806323b872dd146101af57806342842e0e146101cb576100f3565b806301ffc9a7146100f757806306fdde0314610127578063081812fc14610145575b5f5ffd5b610111600480360381019061010c919061182c565b61032d565b60405161011e9190611871565b60405180910390f35b61012f61038d565b60405161013c91906118fa565b60405180910390f35b61015f600480360381019061015a919061194d565b61041c565b60405161016c91906119b7565b60405180910390f35b61018f600480360381019061018a91906119fa565b610437565b005b61019961044d565b6040516101a69190611a47565b60405180910390f35b6101c960048036038101906101c49190611a60565b610456565b005b6101e560048036038101906101e09190611a60565b610555565b005b61020160048036038101906101fc919061194d565b610574565b60405161020e91906119b7565b60405180910390f35b610231600480360381019061022c9190611ab0565b610585565b60405161023e9190611a47565b60405180910390f35b61024f61063b565b60405161025c91906118fa565b60405180910390f35b61027f600480360381019061027a9190611b05565b6106cb565b005b61029b60048036038101906102969190611c6f565b6106e1565b005b6102b760048036038101906102b2919061194d565b610706565b6040516102c491906118fa565b60405180910390f35b6102e760048036038101906102e29190611cef565b610811565b6040516102f49190611871565b60405180910390f35b61031760048036038101906103129190611dcb565b61089f565b6040516103249190611a47565b60405180910390f35b5f634906490660e01b7bffffffffffffffffffffffffffffffffffffffffffffffffffffffff1916827bffffffffffffffffffffffffffffffffffffffffffffffffffffffff19161480610386575061038582610925565b5b9050919050565b60605f805461039b90611e3f565b80601f01602080910402602001604051908101604052809291908181526020018280546103c790611e3f565b80156104125780601f106103e957610100808354040283529160200191610412565b820191905f5260205f20905b8154815290600101906020018083116103f557829003601f168201915b5050505050905090565b5f61042682610a06565b5061043082610a8c565b9050919050565b6104498282610444610ac5565b610acc565b5050565b5f600754905090565b5f73ffffffffffffffffffffffffffffffffffffffff168273ffffffffffffffffffffffffffffffffffffffff16036104c6575f6040517f64a0ae920000000000000000000000000000000000000000000000000000000081526004016104bd91906119b7565b60405180910390fd5b5f6104d983836104d4610ac5565b610ade565b90508373ffffffffffffffffffffffffffffffffffffffff168173ffffffffffffffffffffffffffffffffffffffff161461054f578382826040517f64283d7b00000000000000000000000000000000000000000000000000000000815260040161054693929190611e6f565b60405180910390fd5b50505050565b61056f83838360405180602001604052805f8152506106e1565b505050565b5f61057e82610a06565b9050919050565b5f5f73ffffffffffffffffffffffffffffffffffffffff168273ffffffffffffffffffffffffffffffffffffffff16036105f6575f6040517f89c62b640000000000000000000000000000000000000000000000000000000081526004016105ed91906119b7565b60405180910390fd5b60035f8373ffffffffffffffffffffffffffffffffffffffff1673ffffffffffffffffffffffffffffffffffffffff1681526020019081526020015f20549050919050565b60606001805461064a90611e3f565b80601f016020809104026020016040519081016040528092919081815260200182805461067690611e3f565b80156106c15780601f10610698576101008083540402835291602001916106c1565b820191905f5260205f20905b8154815290600101906020018083116106a457829003601f168201915b5050505050905090565b6106dd6106d6610ac5565b8383610ce9565b5050565b6106ec848484610456565b6107006106f7610ac5565b85858585610e52565b50505050565b606061071182610a06565b505f60065f8481526020019081526020015f20805461072f90611e3f565b80601f016020809104026020016040519081016040528092919081815260200182805461075b90611e3f565b80156107a65780601f1061077d576101008083540402835291602001916107a6565b820191905f5260205f20905b81548152906001019060200180831161078957829003601f168201915b505050505090505f6107b6610ffe565b90505f8151036107ca57819250505061080c565b5f825111156107fe5780826040516020016107e6929190611ede565b6040516020818303038152906040529250505061080c565b61080784611014565b925050505b919050565b5f60055f8473ffffffffffffffffffffffffffffffffffffffff1673ffffffffffffffffffffffffffffffffffffffff1681526020019081526020015f205f8373ffffffffffffffffffffffffffffffffffffffff1673ffffffffffffffffffffffffffffffffffffffff1681526020019081526020015f205f9054906101000a900460ff16905092915050565b5f5f60075f8154809291906108b390611f2e565b9190505590506108c3338261107a565b6108cd818461116d565b803373ffffffffffffffffffffffffffffffffffffffff167fd35bb95e09c04b219e35047ce7b7b300e3384264ef84a40456943dbc0fc17c148560405161091491906118fa565b60405180910390a380915050919050565b5f7f80ac58cd000000000000000000000000000000000000000000000000000000007bffffffffffffffffffffffffffffffffffffffffffffffffffffffff1916827bffffffffffffffffffffffffffffffffffffffffffffffffffffffff191614806109ef57507f5b5e139f000000000000000000000000000000000000000000000000000000007bffffffffffffffffffffffffffffffffffffffffffffffffffffffff1916827bffffffffffffffffffffffffffffffffffffffffffffffffffffffff1916145b806109ff57506109fe826111c7565b5b9050919050565b5f5f610a1183611230565b90505f73ffffffffffffffffffffffffffffffffffffffff168173ffffffffffffffffffffffffffffffffffffffff1603610a8357826040517f7e273289000000000000000000000000000000000000000000000000000000008152600401610a7a9190611a47565b60405180910390fd5b80915050919050565b5f60045f8381526020019081526020015f205f9054906101000a900473ffffffffffffffffffffffffffffffffffffffff169050919050565b5f33905090565b610ad98383836001611269565b505050565b5f5f610ae984611230565b90505f73ffffffffffffffffffffffffffffffffffffffff168373ffffffffffffffffffffffffffffffffffffffff1614610b2a57610b29818486611428565b5b5f73ffffffffffffffffffffffffffffffffffffffff168173ffffffffffffffffffffffffffffffffffffffff1614610bb557610b695f855f5f611269565b600160035f8373ffffffffffffffffffffffffffffffffffffffff1673ffffffffffffffffffffffffffffffffffffffff1681526020019081526020015f205f82825403925050819055505b5f73ffffffffffffffffffffffffffffffffffffffff168573ffffffffffffffffffffffffffffffffffffffff1614610c3457600160035f8773ffffffffffffffffffffffffffffffffffffffff1673ffffffffffffffffffffffffffffffffffffffff1681526020019081526020015f205f82825401925050819055505b8460025f8681526020019081526020015f205f6101000a81548173ffffffffffffffffffffffffffffffffffffffff021916908373ffffffffffffffffffffffffffffffffffffffff160217905550838573ffffffffffffffffffffffffffffffffffffffff168273ffffffffffffffffffffffffffffffffffffffff167fddf252ad1be2c89b69c2b068fc378daa952ba7f163c4a11628f55a4df523b3ef60405160405180910390a4809150509392505050565b5f73ffffffffffffffffffffffffffffffffffffffff168273ffffffffffffffffffffffffffffffffffffffff1603610d5957816040517f5b08ba18000000000000000000000000000000000000000000000000000000008152600401610d5091906119b7565b60405180910390fd5b8060055f8573ffffffffffffffffffffffffffffffffffffffff1673ffffffffffffffffffffffffffffffffffffffff1681526020019081526020015f205f8473ffffffffffffffffffffffffffffffffffffffff1673ffffffffffffffffffffffffffffffffffffffff1681526020019081526020015f205f6101000a81548160ff0219169083151502179055508173ffffffffffffffffffffffffffffffffffffffff168373ffffffffffffffffffffffffffffffffffffffff167f17307eab39ab6107e8899845ad3d59bd9653f200f220920489ca2b5937696c3183604051610e459190611871565b60405180910390a3505050565b5f8373ffffffffffffffffffffffffffffffffffffffff163b1115610ff7578273ffffffffffffffffffffffffffffffffffffffff1663150b7a02868685856040518563ffffffff1660e01b8152600401610eb09493929190611fc7565b6020604051808303815f875af1925050508015610eeb57506040513d601f19601f82011682018060405250810190610ee89190612025565b60015b610f6c573d805f8114610f19576040519150601f19603f3d011682016040523d82523d5f602084013e610f1e565b606091505b505f815103610f6457836040517f64a0ae92000000000000000000000000000000000000000000000000000000008152600401610f5b91906119b7565b60405180910390fd5b805160208201fd5b63150b7a0260e01b7bffffffffffffffffffffffffffffffffffffffffffffffffffffffff1916817bffffffffffffffffffffffffffffffffffffffffffffffffffffffff191614610ff557836040517f64a0ae92000000000000000000000000000000000000000000000000000000008152600401610fec91906119b7565b60405180910390fd5b505b5050505050565b606060405180602001604052805f815250905090565b606061101f82610a06565b505f611029610ffe565b90505f8151116110475760405180602001604052805f815250611072565b80611051846114eb565b604051602001611062929190611ede565b6040516020818303038152906040525b915050919050565b5f73ffffffffffffffffffffffffffffffffffffffff168273ffffffffffffffffffffffffffffffffffffffff16036110ea575f6040517f64a0ae920000000000000000000000000000000000000000000000000000000081526004016110e191906119b7565b60405180910390fd5b5f6110f683835f610ade565b90505f73ffffffffffffffffffffffffffffffffffffffff168173ffffffffffffffffffffffffffffffffffffffff1614611168575f6040517f73c6ac6e00000000000000000000000000000000000000000000000000000000815260040161115f91906119b7565b60405180910390fd5b505050565b8060065f8481526020019081526020015f20908161118b91906121f0565b507ff8e1a15aba9398e019f0b49df1a4fde98ee17ae345cb5f6b5e2c27f5033e8ce7826040516111bb9190611a47565b60405180910390a15050565b5f7f01ffc9a7000000000000000000000000000000000000000000000000000000007bffffffffffffffffffffffffffffffffffffffffffffffffffffffff1916827bffffffffffffffffffffffffffffffffffffffffffffffffffffffff1916149050919050565b5f60025f8381526020019081526020015f205f9054906101000a900473ffffffffffffffffffffffffffffffffffffffff169050919050565b80806112a157505f73ffffffffffffffffffffffffffffffffffffffff168273ffffffffffffffffffffffffffffffffffffffff1614155b156113d3575f6112b084610a06565b90505f73ffffffffffffffffffffffffffffffffffffffff168373ffffffffffffffffffffffffffffffffffffffff161415801561131a57508273ffffffffffffffffffffffffffffffffffffffff168173ffffffffffffffffffffffffffffffffffffffff1614155b801561132d575061132b8184610811565b155b1561136f57826040517fa9fbf51f00000000000000000000000000000000000000000000000000000000815260040161136691906119b7565b60405180910390fd5b81156113d157838573ffffffffffffffffffffffffffffffffffffffff168273ffffffffffffffffffffffffffffffffffffffff167f8c5be1e5ebec7d5bd14f71427d1e84f3dd0314c0f7b2291e5b200ac8c7c3b92560405160405180910390a45b505b8360045f8581526020019081526020015f205f6101000a81548173ffffffffffffffffffffffffffffffffffffffff021916908373ffffffffffffffffffffffffffffffffffffffff16021790555050505050565b6114338383836115b5565b6114e6575f73ffffffffffffffffffffffffffffffffffffffff168373ffffffffffffffffffffffffffffffffffffffff16036114a757806040517f7e27328900000000000000000000000000000000000000000000000000000000815260040161149e9190611a47565b60405180910390fd5b81816040517f177e802f0000000000000000000000000000000000000000000000000000000081526004016114dd9291906122bf565b60405180910390fd5b505050565b60605f60016114f984611675565b0190505f8167ffffffffffffffff81111561151757611516611b4b565b5b6040519080825280601f01601f1916602001820160405280156115495781602001600182028036833780820191505090505b5090505f82602083010190505b6001156115aa578080600190039150507f3031323334353637383961626364656600000000000000000000000000000000600a86061a8153600a858161159f5761159e6122e6565b5b0494505f8503611556575b819350505050919050565b5f5f73ffffffffffffffffffffffffffffffffffffffff168373ffffffffffffffffffffffffffffffffffffffff161415801561166c57508273ffffffffffffffffffffffffffffffffffffffff168473ffffffffffffffffffffffffffffffffffffffff16148061162d575061162c8484610811565b5b8061166b57508273ffffffffffffffffffffffffffffffffffffffff1661165383610a8c565b73ffffffffffffffffffffffffffffffffffffffff16145b5b90509392505050565b5f5f5f90507a184f03e93ff9f4daa797ed6e38ed64bf6a1f01000000000000000083106116d1577a184f03e93ff9f4daa797ed6e38ed64bf6a1f01000000000000000083816116c7576116c66122e6565b5b0492506040810190505b6d04ee2d6d415b85acef8100000000831061170e576d04ee2d6d415b85acef81000000008381611704576117036122e6565b5b0492506020810190505b662386f26fc10000831061173d57662386f26fc100008381611733576117326122e6565b5b0492506010810190505b6305f5e1008310611766576305f5e100838161175c5761175b6122e6565b5b0492506008810190505b612710831061178b576127108381611781576117806122e6565b5b0492506004810190505b606483106117ae57606483816117a4576117a36122e6565b5b0492506002810190505b600a83106117bd576001810190505b80915050919050565b5f604051905090565b5f5ffd5b5f5ffd5b5f7fffffffff0000000000000000000000000000000000000000000000000000000082169050919050565b61180b816117d7565b8114611815575f5ffd5b50565b5f8135905061182681611802565b92915050565b5f60208284031215611841576118406117cf565b5b5f61184e84828501611818565b91505092915050565b5f8115159050919050565b61186b81611857565b82525050565b5f6020820190506118845f830184611862565b92915050565b5f81519050919050565b5f82825260208201905092915050565b8281835e5f83830152505050565b5f601f19601f8301169050919050565b5f6118cc8261188a565b6118d68185611894565b93506118e68185602086016118a4565b6118ef816118b2565b840191505092915050565b5f6020820190508181035f83015261191281846118c2565b905092915050565b5f819050919050565b61192c8161191a565b8114611936575f5ffd5b50565b5f8135905061194781611923565b92915050565b5f60208284031215611962576119616117cf565b5b5f61196f84828501611939565b91505092915050565b5f73ffffffffffffffffffffffffffffffffffffffff82169050919050565b5f6119a182611978565b9050919050565b6119b181611997565b82525050565b5f6020820190506119ca5f8301846119a8565b92915050565b6119d981611997565b81146119e3575f5ffd5b50565b5f813590506119f4816119d0565b92915050565b5f5f60408385031215611a1057611a0f6117cf565b5b5f611a1d858286016119e6565b9250506020611a2e85828601611939565b9150509250929050565b611a418161191a565b82525050565b5f602082019050611a5a5f830184611a38565b92915050565b5f5f5f60608486031215611a7757611a766117cf565b5b5f611a84868287016119e6565b9350506020611a95868287016119e6565b9250506040611aa686828701611939565b9150509250925092565b5f60208284031215611ac557611ac46117cf565b5b5f611ad2848285016119e6565b91505092915050565b611ae481611857565b8114611aee575f5ffd5b50565b5f81359050611aff81611adb565b92915050565b5f5f60408385031215611b1b57611b1a6117cf565b5b5f611b28858286016119e6565b9250506020611b3985828601611af1565b9150509250929050565b5f5ffd5b5f5ffd5b7f4e487b71000000000000000000000000000000000000000000000000000000005f52604160045260245ffd5b611b81826118b2565b810181811067ffffffffffffffff82111715611ba057611b9f611b4b565b5b80604052505050565b5f611bb26117c6565b9050611bbe8282611b78565b919050565b5f67ffffffffffffffff821115611bdd57611bdc611b4b565b5b611be6826118b2565b9050602081019050919050565b828183375f83830152505050565b5f611c13611c0e84611bc3565b611ba9565b905082815260208101848484011115611c2f57611c2e611b47565b5b611c3a848285611bf3565b509392505050565b5f82601f830112611c5657611c55611b43565b5b8135611c66848260208601611c01565b91505092915050565b5f5f5f5f60808587031215611c8757611c866117cf565b5b5f611c94878288016119e6565b9450506020611ca5878288016119e6565b9350506040611cb687828801611939565b925050606085013567ffffffffffffffff811115611cd757611cd66117d3565b5b611ce387828801611c42565b91505092959194509250565b5f5f60408385031215611d0557611d046117cf565b5b5f611d12858286016119e6565b9250506020611d23858286016119e6565b9150509250929050565b5f67ffffffffffffffff821115611d4757611d46611b4b565b5b611d50826118b2565b9050602081019050919050565b5f611d6f611d6a84611d2d565b611ba9565b905082815260208101848484011115611d8b57611d8a611b47565b5b611d96848285611bf3565b509392505050565b5f82601f830112611db257611db1611b43565b5b8135611dc2848260208601611d5d565b91505092915050565b5f60208284031215611de057611ddf6117cf565b5b5f82013567ffffffffffffffff811115611dfd57611dfc6117d3565b5b611e0984828501611d9e565b91505092915050565b7f4e487b71000000000000000000000000000000000000000000000000000000005f52602260045260245ffd5b5f6002820490506001821680611e5657607f821691505b602082108103611e6957611e68611e12565b5b50919050565b5f606082019050611e825f8301866119a8565b611e8f6020830185611a38565b611e9c60408301846119a8565b949350505050565b5f81905092915050565b5f611eb88261188a565b611ec28185611ea4565b9350611ed28185602086016118a4565b80840191505092915050565b5f611ee98285611eae565b9150611ef58284611eae565b91508190509392505050565b7f4e487b71000000000000000000000000000000000000000000000000000000005f52601160045260245ffd5b5f611f388261191a565b91507fffffffffffffffffffffffffffffffffffffffffffffffffffffffffffffffff8203611f6a57611f69611f01565b5b600182019050919050565b5f81519050919050565b5f82825260208201905092915050565b5f611f9982611f75565b611fa38185611f7f565b9350611fb38185602086016118a4565b611fbc816118b2565b840191505092915050565b5f608082019050611fda5f8301876119a8565b611fe760208301866119a8565b611ff46040830185611a38565b81810360608301526120068184611f8f565b905095945050505050565b5f8151905061201f81611802565b92915050565b5f6020828403121561203a576120396117cf565b5b5f61204784828501612011565b91505092915050565b5f819050815f5260205f209050919050565b5f6020601f8301049050919050565b5f82821b905092915050565b5f600883026120ac7fffffffffffffffffffffffffffffffffffffffffffffffffffffffffffffffff82612071565b6120b68683612071565b95508019841693508086168417925050509392505050565b5f819050919050565b5f6120f16120ec6120e78461191a565b6120ce565b61191a565b9050919050565b5f819050919050565b61210a836120d7565b61211e612116826120f8565b84845461207d565b825550505050565b5f5f905090565b612135612126565b612140818484612101565b505050565b5b81811015612163576121585f8261212d565b600181019050612146565b5050565b601f8211156121a85761217981612050565b61218284612062565b81016020851015612191578190505b6121a561219d85612062565b830182612145565b50505b505050565b5f82821c905092915050565b5f6121c85f19846008026121ad565b1980831691505092915050565b5f6121e083836121b9565b9150826002028217905092915050565b6121f98261188a565b67ffffffffffffffff81111561221257612211611b4b565b5b61221c8254611e3f565b612227828285612167565b5f60209050601f831160018114612258575f8415612246578287015190505b61225085826121d5565b8655506122b7565b601f19841661226686612050565b5f5b8281101561228d57848901518255600182019150602085019450602081019050612268565b868310156122aa57848901516122a6601f8916826121b9565b8355505b6001600288020188555050505b505050505050565b5f6040820190506122d25f8301856119a8565b6122df6020830184611a38565b9392505050565b7f4e487b71000000000000000000000000000000000000000000000000000000005f52601260045260245ffdfea2646970667358221220e4ff74c59d818ff432042a0c983d9d0e8db0fa89af1739258c3eec43efdc0c7264736f6c634300081e0033",
    "linkReferences": {}
  },
  "methodIdentifiers": {
    "approve(address,uint256)": "095ea7b3",
    "balanceOf(address)": "70a08231",
    "getApproved(uint256)": "081812fc",
    "getTotalMinted()": "0ca1c5c9",
    "isApprovedForAll(address,address)": "e985e9c5",
    "mintNFT(string)": "fb37e883",
    "name()": "06fdde03",
    "ownerOf(uint256)": "6352211e",
    "safeTransferFrom(address,address,uint256)": "42842e0e",
    "safeTransferFrom(address,address,uint256,bytes)": "b88d4fde",
    "setApprovalForAll(address,bool)": "a22cb465",
    "supportsInterface(bytes4)": "01ffc9a7",
    "symbol()": "95d89b41",
    "tokenURI(uint256)": "c87b56dd",
    "transferFrom(address,address,uint256)": "23b872dd"
  },
  "id": 41
}