{
  "abi": [
    {
      "type": "constructor",
      "inputs": [
        {
          "name": "_treasury",
          "type": "address",
          "internalType": "address"
        }
      ],
      "stateMutability": "nonpayable"
    },
    {
      "type": "function",
      "name": "buyNFT",
      "inputs": [
        {
          "name": "listingId",
          "type": "uint256",
          "internalType": "uint256"
        }
      ],
      "outputs": [],
      "stateMutability": "payable"
    },
    {
      "type": "function",
      "name": "cancelListing",
      "inputs": [
        {
          "name": "listingId",
          "type": "uint256",
          "internalType": "uint256"
        }
      ],
      "outputs": [],
      "stateMutability": "nonpayable"
    },
    {
      "type": "function",
      "name": "getAllListingsWithTokenURI",
      "inputs": [],
      "outputs": [
        {
          "name": "",
          "type": "tuple[]",
          "internalType": "struct MarketPlace.ListingWithTokenURI[]",
          "components": [
            {
              "name": "listingId",
              "type": "uint256",
              "internalType": "uint256"
            },
            {
              "name": "seller",
              "type": "address",
              "internalType": "address"
            },
            {
              "name": "buyer",
              "type": "address",
              "internalType": "address"
            },
            {
              "name": "nftContract",
              "type": "address",
              "internalType": "address"
            },
            {
              "name": "tokenId",
              "type": "uint256",
              "internalType": "uint256"
            },
            {
              "name": "price",
              "type": "uint256",
              "internalType": "uint256"
            },
            {
              "name": "active",
              "type": "bool",
              "internalType": "bool"
            },
            {
              "name": "listedAt",
              "type": "uint256",
              "internalType": "uint256"
            },
            {
              "name": "tokenURI",
              "type": "string",
              "internalType": "string"
            }
          ]
        }
      ],
      "stateMutability": "view"
    },
    {
      "type": "function",
      "name": "getFeePercent",
      "inputs": [],
      "outputs": [
        {
          "name": "",
          "type": "uint256",
          "internalType": "uint256"
        }
      ],
      "stateMutability": "view"
    },
    {
      "type": "function",
      "name": "getNextListingId",
      "inputs": [],
      "outputs": [
        {
          "name": "",
          "type": "uint256",
          "internalType": "uint256"
        }
      ],
      "stateMutability": "view"
    },
    {
      "type": "function",
      "name": "getSellerActiveListingsWithTokenURI",
      "inputs": [
        {
          "name": "_seller",
          "type": "address",
          "internalType": "address"
        }
      ],
      "outputs": [
        {
          "name": "",
          "type": "tuple[]",
          "internalType": "struct MarketPlace.ListingWithTokenURI[]",
          "components": [
            {
              "name": "listingId",
              "type": "uint256",
              "internalType": "uint256"
            },
            {
              "name": "seller",
              "type": "address",
              "internalType": "address"
            },
            {
              "name": "buyer",
              "type": "address",
              "internalType": "address"
            },
            {
              "name": "nftContract",
              "type": "address",
              "internalType": "address"
            },
            {
              "name": "tokenId",
              "type": "uint256",
              "internalType": "uint256"
            },
            {
              "name": "price",
              "type": "uint256",
              "internalType": "uint256"
            },
            {
              "name": "active",
              "type": "bool",
              "internalType": "bool"
            },
            {
              "name": "listedAt",
              "type": "uint256",
              "internalType": "uint256"
            },
            {
              "name": "tokenURI",
              "type": "string",
              "internalType": "string"
            }
          ]
        }
      ],
      "stateMutability": "view"
    },
    {
      "type": "function",
      "name": "getSellerInActiveListingsWithTokenURI",
      "inputs": [
        {
          "name": "_seller",
          "type": "address",
          "internalType": "address"
        }
      ],
      "outputs": [
        {
          "name": "",
          "type": "tuple[]",
          "internalType": "struct MarketPlace.ListingWithTokenURI[]",
          "components": [
            {
              "name": "listingId",
              "type": "uint256",
              "internalType": "uint256"
            },
            {
              "name": "seller",
              "type": "address",
              "internalType": "address"
            },
            {
              "name": "buyer",
              "type": "address",
              "internalType": "address"
            },
            {
              "name": "nftContract",
              "type": "address",
              "internalType": "address"
            },
            {
              "name": "tokenId",
              "type": "uint256",
              "internalType": "uint256"
            },
            {
              "name": "price",
              "type": "uint256",
              "internalType": "uint256"
            },
            {
              "name": "active",
              "type": "bool",
              "internalType": "bool"
            },
            {
              "name": "listedAt",
              "type": "uint256",
              "internalType": "uint256"
            },
            {
              "name": "tokenURI",
              "type": "string",
              "internalType": "string"
            }
          ]
        }
      ],
      "stateMutability": "view"
    },
    {
      "type": "function",
      "name": "getSingleListingWithTokenURI",
      "inputs": [
        {
          "name": "listingId",
          "type": "uint256",
          "internalType": "uint256"
        }
      ],
      "outputs": [
        {
          "name": "",
          "type": "tuple",
          "internalType": "struct MarketPlace.ListingWithTokenURI",
          "components": [
            {
              "name": "listingId",
              "type": "uint256",
              "internalType": "uint256"
            },
            {
              "name": "seller",
              "type": "address",
              "internalType": "address"
            },
            {
              "name": "buyer",
              "type": "address",
              "internalType": "address"
            },
            {
              "name": "nftContract",
              "type": "address",
              "internalType": "address"
            },
            {
              "name": "tokenId",
              "type": "uint256",
              "internalType": "uint256"
            },
            {
              "name": "price",
              "type": "uint256",
              "internalType": "uint256"
            },
            {
              "name": "active",
              "type": "bool",
              "internalType": "bool"
            },
            {
              "name": "listedAt",
              "type": "uint256",
              "internalType": "uint256"
            },
            {
              "name": "tokenURI",
              "type": "string",
              "internalType": "string"
            }
          ]
        }
      ],
      "stateMutability": "view"
    },
    {
      "type": "function",
      "name": "getUserPurchasesWithTokenURI",
      "inputs": [
        {
          "name": "_user",
          "type": "address",
          "internalType": "address"
        }
      ],
      "outputs": [
        {
          "name": "",
          "type": "tuple[]",
          "internalType": "struct MarketPlace.ListingWithTokenURI[]",
          "components": [
            {
              "name": "listingId",
              "type": "uint256",
              "internalType": "uint256"
            },
            {
              "name": "seller",
              "type": "address",
              "internalType": "address"
            },
            {
              "name": "buyer",
              "type": "address",
              "internalType": "address"
            },
            {
              "name": "nftContract",
              "type": "address",
              "internalType": "address"
            },
            {
              "name": "tokenId",
              "type": "uint256",
              "internalType": "uint256"
            },
            {
              "name": "price",
              "type": "uint256",
              "internalType": "uint256"
            },
            {
              "name": "active",
              "type": "bool",
              "internalType": "bool"
            },
            {
              "name": "listedAt",
              "type": "uint256",
              "internalType": "uint256"
            },
            {
              "name": "tokenURI",
              "type": "string",
              "internalType": "string"
            }
          ]
        }
      ],
      "stateMutability": "view"
    },
    {
      "type": "function",
      "name": "listNFT",
      "inputs": [
        {
          "name": "_nftContract",
          "type": "address",
          "internalType": "address"
        },
        {
          "name": "_tokenId",
          "type": "uint256",
          "internalType": "uint256"
        },
        {
          "name": "_price",
          "type": "uint256",
          "internalType": "uint256"
        }
      ],
      "outputs": [],
      "stateMutability": "nonpayable"
    },
    {
      "type": "function",
      "name": "owner",
      "inputs": [],
      "outputs": [
        {
          "name": "",
          "type": "address",
          "internalType": "address"
        }
      ],
      "stateMutability": "view"
    },
    {
      "type": "function",
      "name": "relistPurchasedNFT",
      "inputs": [
        {
          "name": "_originalListingId",
          "type": "uint256",
          "internalType": "uint256"
        },
        {
          "name": "_newPrice",
          "type": "uint256",
          "internalType": "uint256"
        }
      ],
      "outputs": [],
      "stateMutability": "nonpayable"
    },
    {
      "type": "function",
      "name": "renounceOwnership",
      "inputs": [],
      "outputs": [],
      "stateMutability": "nonpayable"
    },
    {
      "type": "function",
      "name": "setFeePercent",
      "inputs": [
        {
          "name": "_newFeePercent",
          "type": "uint256",
          "internalType": "uint256"
        }
      ],
      "outputs": [],
      "stateMutability": "nonpayable"
    },
    {
      "type": "function",
      "name": "transferOwnership",
      "inputs": [
        {
          "name": "newOwner",
          "type": "address",
          "internalType": "address"
        }
      ],
      "outputs": [],
      "stateMutability": "nonpayable"
    },
    {
      "type": "event",
      "name": "ListingCanceled",
      "inputs": [
        {
          "name": "listingId",
          "type": "uint256",
          "indexed": false,
          "internalType": "uint256"
        }
      ],
      "anonymous": false
    },
    {
      "type": "event",
      "name": "NFTListed",
      "inputs": [
        {
          "name": "listingId",
          "type": "uint256",
          "indexed": false,
          "internalType": "uint256"
        },
        {
          "name": "seller",
          "type": "address",
          "indexed": false,
          "internalType": "address"
        },
        {
          "name": "nftContract",
          "type": "address",
          "indexed": false,
          "internalType": "address"
        },
        {
          "name": "tokenId",
          "type": "uint256",
          "indexed": false,
          "internalType": "uint256"
        },
        {
          "name": "price",
          "type": "uint256",
          "indexed": false,
          "internalType": "uint256"
        }
      ],
      "anonymous": false
    },
    {
      "type": "event",
      "name": "NFTSold",
      "inputs": [
        {
          "name": "listingId",
          "type": "uint256",
          "indexed": false,
          "internalType": "uint256"
        },
        {
          "name": "buyer",
          "type": "address",
          "indexed": false,
          "internalType": "address"
        }
      ],
      "anonymous": false
    },
    {
      "type": "event",
      "name": "OwnershipTransferred",
      "inputs": [
        {
          "name": "previousOwner",
          "type": "address",
          "indexed": true,
          "internalType": "address"
        },
        {
          "name": "newOwner",
          "type": "address",
          "indexed": true,
          "internalType": "address"
        }
      ],
      "anonymous": false
    },
    {
      "type": "error",
      "name": "MarketPlace__ListingAlreadyActive",
      "inputs": []
    },
    {
      "type": "error",
      "name": "MarketPlace__NFTNotActive",
      "inputs": []
    },
    {
      "type": "error",
      "name": "MarketPlace__NotEnoughAmount",
      "inputs": []
    },
    {
      "type": "error",
      "name": "MarketPlace__NotTheOwnerOfNFT",
      "inputs": []
    },
    {
      "type": "error",
      "name": "MarketPlace__NotTheSeller",
      "inputs": []
    },
    {
      "type": "error",
      "name": "MarketPlace__NotValidListingId",
      "inputs": []
    },
    {
      "type": "error",
      "name": "MarketPlace__PriceMustBeGraterThanZero",
      "inputs": []
    },
    {
      "type": "error",
      "name": "MarketPlace__TransferFailed",
      "inputs": []
    },
    {
      "type": "error",
      "name": "OwnableInvalidOwner",
      "inputs": [
        {
          "name": "owner",
          "type": "address",
          "internalType": "address"
        }
      ]
    },
    {
      "type": "error",
      "name": "OwnableUnauthorizedAccount",
      "inputs": [
        {
          "name": "account",
          "type": "address",
          "internalType": "address"
        }
      ]
    },
    {
      "type": "error",
      "name": "ReentrancyGuardReentrantCall",
      "inputs": []
    }
  ],
  "bytecode": {
    "object": "0x60806040526002600555348015610014575f5ffd5b506040516135893803806135898339818101604052810190610036919061022d565b3360015f819055505f73ffffffffffffffffffffffffffffffffffffffff168173ffffffffffffffffffffffffffffffffffffffff16036100ae575f6040517f1e4fbdf70000000000000000000000000000000000000000000000000000000081526004016100a59190610267565b60405180910390fd5b6100bd8161010c60201b60201c565b508060045f6101000a81548173ffffffffffffffffffffffffffffffffffffffff021916908373ffffffffffffffffffffffffffffffffffffffff160217905550600160038190555050610280565b5f60015f9054906101000a900473ffffffffffffffffffffffffffffffffffffffff1690508160015f6101000a81548173ffffffffffffffffffffffffffffffffffffffff021916908373ffffffffffffffffffffffffffffffffffffffff1602179055508173ffffffffffffffffffffffffffffffffffffffff168173ffffffffffffffffffffffffffffffffffffffff167f8be0079c531659141344cd1fd0a4f28419497f9722a3daafe3b4186f6b6457e060405160405180910390a35050565b5f5ffd5b5f73ffffffffffffffffffffffffffffffffffffffff82169050919050565b5f6101fc826101d3565b9050919050565b61020c816101f2565b8114610216575f5ffd5b50565b5f8151905061022781610203565b92915050565b5f60208284031215610242576102416101cf565b5b5f61024f84828501610219565b91505092915050565b610261816101f2565b82525050565b5f60208201905061027a5f830184610258565b92915050565b6132fc8061028d5f395ff3fe6080604052600436106100e7575f3560e01c80638da5cb5b11610089578063d6959fb311610058578063d6959fb3146102a1578063e51fc9ad146102dd578063e61a3b3914610319578063f2fde38b14610355576100e7565b80638da5cb5b146101fd578063ad05f1b414610227578063bd823aba1461024f578063be74264d14610277576100e7565b806339bbf609116100c557806339bbf6091461017957806351ed8288146101a3578063715018a6146101bf5780637ce3489b146101d5576100e7565b80630c29073c146100eb578063103c1bb914610115578063305a67a814610151575b5f5ffd5b3480156100f6575f5ffd5b506100ff61037d565b60405161010c9190612c66565b60405180910390f35b348015610120575f5ffd5b5061013b60048036038101906101369190612cc1565b610718565b6040516101489190612dae565b60405180910390f35b34801561015c575f5ffd5b5061017760048036038101906101729190612cc1565b610a28565b005b348015610184575f5ffd5b5061018d610c78565b60405161019a9190612ddd565b60405180910390f35b6101bd60048036038101906101b89190612cc1565b610c81565b005b3480156101ca575f5ffd5b506101d3611084565b005b3480156101e0575f5ffd5b506101fb60048036038101906101f69190612cc1565b611097565b005b348015610208575f5ffd5b506102116110a9565b60405161021e9190612e05565b60405180910390f35b348015610232575f5ffd5b5061024d60048036038101906102489190612e48565b6110d1565b005b34801561025a575f5ffd5b5061027560048036038101906102709190612e98565b6110f3565b005b348015610282575f5ffd5b5061028b61135d565b6040516102989190612ddd565b60405180910390f35b3480156102ac575f5ffd5b506102c760048036038101906102c29190612ed6565b611366565b6040516102d49190612c66565b60405180910390f35b3480156102e8575f5ffd5b5061030360048036038101906102fe9190612ed6565b6117f5565b6040516103109190612c66565b60405180910390f35b348015610324575f5ffd5b5061033f600480360381019061033a9190612ed6565b611d56565b60405161034c9190612c66565b60405180910390f35b348015610360575f5ffd5b5061037b60048036038101906103769190612ed6565b6122b9565b005b60605f5f90505f5f90505b6003548110156103d45760025f8281526020019081526020015f206006015f9054906101000a900460ff16156103c75781806103c390612f2e565b9250505b8080600101915050610388565b505f8167ffffffffffffffff8111156103f0576103ef612f75565b5b60405190808252806020026020018201604052801561042957816020015b610416612980565b81526020019060019003908161040e5790505b5090505f5f90505f5f90505b60035481101561070e575f60025f8381526020019081526020015f20604051806101000160405290815f8201548152602001600182015f9054906101000a900473ffffffffffffffffffffffffffffffffffffffff1673ffffffffffffffffffffffffffffffffffffffff1673ffffffffffffffffffffffffffffffffffffffff168152602001600282015f9054906101000a900473ffffffffffffffffffffffffffffffffffffffff1673ffffffffffffffffffffffffffffffffffffffff1673ffffffffffffffffffffffffffffffffffffffff168152602001600382015f9054906101000a900473ffffffffffffffffffffffffffffffffffffffff1673ffffffffffffffffffffffffffffffffffffffff1673ffffffffffffffffffffffffffffffffffffffff1681526020016004820154815260200160058201548152602001600682015f9054906101000a900460ff1615151515815260200160078201548152505090508060c0015115610700575f816060015173ffffffffffffffffffffffffffffffffffffffff1663c87b56dd83608001516040518263ffffffff1660e01b81526004016105eb9190612ddd565b5f60405180830381865afa158015610605573d5f5f3e3d5ffd5b505050506040513d5f823e3d601f19601f8201168201806040525081019061062d9190613093565b9050604051806101200160405280835f01518152602001836020015173ffffffffffffffffffffffffffffffffffffffff168152602001836040015173ffffffffffffffffffffffffffffffffffffffff168152602001836060015173ffffffffffffffffffffffffffffffffffffffff168152602001836080015181526020018360a0015181526020018360c00151151581526020018360e001518152602001828152508585815181106106e5576106e46130da565b5b602002602001018190525083806106fb90612f2e565b945050505b508080600101915050610435565b5081935050505090565b610720612980565b815f810361075a576040517fb8720b0000000000000000000000000000000000000000000000000000000000815260040160405180910390fd5b6003548110610795576040517fb8720b0000000000000000000000000000000000000000000000000000000000815260040160405180910390fd5b5f60025f8581526020019081526020015f20604051806101000160405290815f8201548152602001600182015f9054906101000a900473ffffffffffffffffffffffffffffffffffffffff1673ffffffffffffffffffffffffffffffffffffffff1673ffffffffffffffffffffffffffffffffffffffff168152602001600282015f9054906101000a900473ffffffffffffffffffffffffffffffffffffffff1673ffffffffffffffffffffffffffffffffffffffff1673ffffffffffffffffffffffffffffffffffffffff168152602001600382015f9054906101000a900473ffffffffffffffffffffffffffffffffffffffff1673ffffffffffffffffffffffffffffffffffffffff1673ffffffffffffffffffffffffffffffffffffffff1681526020016004820154815260200160058201548152602001600682015f9054906101000a900460ff1615151515815260200160078201548152505090505f816060015173ffffffffffffffffffffffffffffffffffffffff1663c87b56dd83608001516040518263ffffffff1660e01b81526004016109379190612ddd565b5f60405180830381865afa158015610951573d5f5f3e3d5ffd5b505050506040513d5f823e3d601f19601f820116820180604052508101906109799190613093565b9050604051806101200160405280835f01518152602001836020015173ffffffffffffffffffffffffffffffffffffffff168152602001836040015173ffffffffffffffffffffffffffffffffffffffff168152602001836060015173ffffffffffffffffffffffffffffffffffffffff168152602001836080015181526020018360a0015181526020018360c00151151581526020018360e001518152602001828152509350505050919050565b610a3061233d565b805f8103610a6a576040517fb8720b0000000000000000000000000000000000000000000000000000000000815260040160405180910390fd5b6003548110610aa5576040517fb8720b0000000000000000000000000000000000000000000000000000000000815260040160405180910390fd5b5f60025f8481526020019081526020015f209050806006015f9054906101000a900460ff16610b00576040517fd875e58f00000000000000000000000000000000000000000000000000000000815260040160405180910390fd5b806001015f9054906101000a900473ffffffffffffffffffffffffffffffffffffffff1673ffffffffffffffffffffffffffffffffffffffff163373ffffffffffffffffffffffffffffffffffffffff1614610b88576040517f869b388e00000000000000000000000000000000000000000000000000000000815260040160405180910390fd5b5f816006015f6101000a81548160ff021916908315150217905550806003015f9054906101000a900473ffffffffffffffffffffffffffffffffffffffff1673ffffffffffffffffffffffffffffffffffffffff166323b872dd303384600401546040518463ffffffff1660e01b8152600401610c0793929190613107565b5f604051808303815f87803b158015610c1e575f5ffd5b505af1158015610c30573d5f5f3e3d5ffd5b505050507f5d7a33421ffa4bc07eb8929c5ace6393d3aa5ec3775e4e2f442527876b7dbe8883604051610c639190612ddd565b60405180910390a15050610c75612381565b50565b5f600354905090565b610c8961233d565b805f8103610cc3576040517fb8720b0000000000000000000000000000000000000000000000000000000000815260040160405180910390fd5b6003548110610cfe576040517fb8720b0000000000000000000000000000000000000000000000000000000000815260040160405180910390fd5b5f60025f8481526020019081526020015f209050806006015f9054906101000a900460ff16610d59576040517fd875e58f00000000000000000000000000000000000000000000000000000000815260040160405180910390fd5b80600501543414610d96576040517f3615a4de00000000000000000000000000000000000000000000000000000000815260040160405180910390fd5b5f60646005548360050154610dab919061313c565b610db591906131aa565b90505f818360050154610dc891906131da565b90505f836001015f9054906101000a900473ffffffffffffffffffffffffffffffffffffffff1673ffffffffffffffffffffffffffffffffffffffff1682604051610e129061323a565b5f6040518083038185875af1925050503d805f8114610e4c576040519150601f19603f3d011682016040523d82523d5f602084013e610e51565b606091505b5050905080610e8c576040517fb7f9960e00000000000000000000000000000000000000000000000000000000815260040160405180910390fd5b60045f9054906101000a900473ffffffffffffffffffffffffffffffffffffffff1673ffffffffffffffffffffffffffffffffffffffff1683604051610ed19061323a565b5f6040518083038185875af1925050503d805f8114610f0b576040519150601f19603f3d011682016040523d82523d5f602084013e610f10565b606091505b50508091505080610f4d576040517fb7f9960e00000000000000000000000000000000000000000000000000000000815260040160405180910390fd5b33846002015f6101000a81548173ffffffffffffffffffffffffffffffffffffffff021916908373ffffffffffffffffffffffffffffffffffffffff1602179055505f846006015f6101000a81548160ff021916908315150217905550836003015f9054906101000a900473ffffffffffffffffffffffffffffffffffffffff1673ffffffffffffffffffffffffffffffffffffffff166323b872dd303387600401546040518463ffffffff1660e01b815260040161100e93929190613107565b5f604051808303815f87803b158015611025575f5ffd5b505af1158015611037573d5f5f3e3d5ffd5b505050507ffa9b8d7a5322ce99e49fe0bb8a9dae40e0af71e721da0bab9d9bb9a92602c5b9863360405161106c92919061324e565b60405180910390a15050505050611081612381565b50565b61108c61238a565b6110955f612411565b565b61109f61238a565b8060058190555050565b5f60015f9054906101000a900473ffffffffffffffffffffffffffffffffffffffff16905090565b6110d961233d565b6110e68383835f5f6124d4565b6110ee612381565b505050565b6110fb61233d565b815f8103611135576040517fb8720b0000000000000000000000000000000000000000000000000000000000815260040160405180910390fd5b6003548110611170576040517fb8720b0000000000000000000000000000000000000000000000000000000000815260040160405180910390fd5b5f60025f8581526020019081526020015f20604051806101000160405290815f8201548152602001600182015f9054906101000a900473ffffffffffffffffffffffffffffffffffffffff1673ffffffffffffffffffffffffffffffffffffffff1673ffffffffffffffffffffffffffffffffffffffff168152602001600282015f9054906101000a900473ffffffffffffffffffffffffffffffffffffffff1673ffffffffffffffffffffffffffffffffffffffff1673ffffffffffffffffffffffffffffffffffffffff168152602001600382015f9054906101000a900473ffffffffffffffffffffffffffffffffffffffff1673ffffffffffffffffffffffffffffffffffffffff1673ffffffffffffffffffffffffffffffffffffffff1681526020016004820154815260200160058201548152602001600682015f9054906101000a900460ff161515151581526020016007820154815250509050806040015173ffffffffffffffffffffffffffffffffffffffff163373ffffffffffffffffffffffffffffffffffffffff1614611339576040517f44bc1ecc00000000000000000000000000000000000000000000000000000000815260040160405180910390fd5b61134f81606001518260800151856001886124d4565b5050611359612381565b5050565b5f600554905090565b60605f5f90505f5f90505b600354811015611428578373ffffffffffffffffffffffffffffffffffffffff1660025f8381526020019081526020015f206002015f9054906101000a900473ffffffffffffffffffffffffffffffffffffffff1673ffffffffffffffffffffffffffffffffffffffff16148015611407575060025f8281526020019081526020015f206006015f9054906101000a900460ff16155b1561141b57818061141790612f2e565b9250505b8080600101915050611371565b505f8167ffffffffffffffff81111561144457611443612f75565b5b60405190808252806020026020018201604052801561147d57816020015b61146a612980565b8152602001906001900390816114625790505b5090505f5f90505f5f90505b6003548110156117e9578573ffffffffffffffffffffffffffffffffffffffff1660025f8381526020019081526020015f206002015f9054906101000a900473ffffffffffffffffffffffffffffffffffffffff1673ffffffffffffffffffffffffffffffffffffffff1614801561151f575060025f8281526020019081526020015f206006015f9054906101000a900460ff16155b156117dc575f60025f8381526020019081526020015f20604051806101000160405290815f8201548152602001600182015f9054906101000a900473ffffffffffffffffffffffffffffffffffffffff1673ffffffffffffffffffffffffffffffffffffffff1673ffffffffffffffffffffffffffffffffffffffff168152602001600282015f9054906101000a900473ffffffffffffffffffffffffffffffffffffffff1673ffffffffffffffffffffffffffffffffffffffff1673ffffffffffffffffffffffffffffffffffffffff168152602001600382015f9054906101000a900473ffffffffffffffffffffffffffffffffffffffff1673ffffffffffffffffffffffffffffffffffffffff1673ffffffffffffffffffffffffffffffffffffffff1681526020016004820154815260200160058201548152602001600682015f9054906101000a900460ff1615151515815260200160078201548152505090505f816060015173ffffffffffffffffffffffffffffffffffffffff1663c87b56dd83608001516040518263ffffffff1660e01b81526004016116c69190612ddd565b5f60405180830381865afa1580156116e0573d5f5f3e3d5ffd5b505050506040513d5f823e3d601f19601f820116820180604052508101906117089190613093565b9050604051806101200160405280835f01518152602001836020015173ffffffffffffffffffffffffffffffffffffffff168152602001836040015173ffffffffffffffffffffffffffffffffffffffff168152602001836060015173ffffffffffffffffffffffffffffffffffffffff168152602001836080015181526020018360a0015181526020018360c00151151581526020018360e001518152602001828152508585815181106117c0576117bf6130da565b5b602002602001018190525083806117d690612f2e565b94505050505b8080600101915050611489565b50819350505050919050565b60605f5f90505f5f90505b600354811015611920578373ffffffffffffffffffffffffffffffffffffffff1660025f8381526020019081526020015f206001015f9054906101000a900473ffffffffffffffffffffffffffffffffffffffff1673ffffffffffffffffffffffffffffffffffffffff16148015611895575060025f8281526020019081526020015f206006015f9054906101000a900460ff165b80156118ff57505f73ffffffffffffffffffffffffffffffffffffffff1660025f8381526020019081526020015f206002015f9054906101000a900473ffffffffffffffffffffffffffffffffffffffff1673ffffffffffffffffffffffffffffffffffffffff16145b1561191357818061190f90612f2e565b9250505b8080600101915050611800565b505f8167ffffffffffffffff81111561193c5761193b612f75565b5b60405190808252806020026020018201604052801561197557816020015b611962612980565b81526020019060019003908161195a5790505b5090505f5f90505f5f90505b600354811015611d4a578573ffffffffffffffffffffffffffffffffffffffff1660025f8381526020019081526020015f206001015f9054906101000a900473ffffffffffffffffffffffffffffffffffffffff1673ffffffffffffffffffffffffffffffffffffffff16148015611a16575060025f8281526020019081526020015f206006015f9054906101000a900460ff165b8015611a8057505f73ffffffffffffffffffffffffffffffffffffffff1660025f8381526020019081526020015f206002015f9054906101000a900473ffffffffffffffffffffffffffffffffffffffff1673ffffffffffffffffffffffffffffffffffffffff16145b15611d3d575f60025f8381526020019081526020015f20604051806101000160405290815f8201548152602001600182015f9054906101000a900473ffffffffffffffffffffffffffffffffffffffff1673ffffffffffffffffffffffffffffffffffffffff1673ffffffffffffffffffffffffffffffffffffffff168152602001600282015f9054906101000a900473ffffffffffffffffffffffffffffffffffffffff1673ffffffffffffffffffffffffffffffffffffffff1673ffffffffffffffffffffffffffffffffffffffff168152602001600382015f9054906101000a900473ffffffffffffffffffffffffffffffffffffffff1673ffffffffffffffffffffffffffffffffffffffff1673ffffffffffffffffffffffffffffffffffffffff1681526020016004820154815260200160058201548152602001600682015f9054906101000a900460ff1615151515815260200160078201548152505090505f816060015173ffffffffffffffffffffffffffffffffffffffff1663c87b56dd83608001516040518263ffffffff1660e01b8152600401611c279190612ddd565b5f60405180830381865afa158015611c41573d5f5f3e3d5ffd5b505050506040513d5f823e3d601f19601f82011682018060405250810190611c699190613093565b9050604051806101200160405280835f01518152602001836020015173ffffffffffffffffffffffffffffffffffffffff168152602001836040015173ffffffffffffffffffffffffffffffffffffffff168152602001836060015173ffffffffffffffffffffffffffffffffffffffff168152602001836080015181526020018360a0015181526020018360c00151151581526020018360e00151815260200182815250858581518110611d2157611d206130da565b5b60200260200101819052508380611d3790612f2e565b94505050505b8080600101915050611981565b50819350505050919050565b60605f5f90505f5f90505b600354811015611e82578373ffffffffffffffffffffffffffffffffffffffff1660025f8381526020019081526020015f206001015f9054906101000a900473ffffffffffffffffffffffffffffffffffffffff1673ffffffffffffffffffffffffffffffffffffffff16148015611df7575060025f8281526020019081526020015f206006015f9054906101000a900460ff16155b8015611e6157505f73ffffffffffffffffffffffffffffffffffffffff1660025f8381526020019081526020015f206002015f9054906101000a900473ffffffffffffffffffffffffffffffffffffffff1673ffffffffffffffffffffffffffffffffffffffff16145b15611e75578180611e7190612f2e565b9250505b8080600101915050611d61565b505f8167ffffffffffffffff811115611e9e57611e9d612f75565b5b604051908082528060200260200182016040528015611ed757816020015b611ec4612980565b815260200190600190039081611ebc5790505b5090505f5f90505f5f90505b6003548110156122ad578573ffffffffffffffffffffffffffffffffffffffff1660025f8381526020019081526020015f206001015f9054906101000a900473ffffffffffffffffffffffffffffffffffffffff1673ffffffffffffffffffffffffffffffffffffffff16148015611f79575060025f8281526020019081526020015f206006015f9054906101000a900460ff16155b8015611fe357505f73ffffffffffffffffffffffffffffffffffffffff1660025f8381526020019081526020015f206002015f9054906101000a900473ffffffffffffffffffffffffffffffffffffffff1673ffffffffffffffffffffffffffffffffffffffff16145b156122a0575f60025f8381526020019081526020015f20604051806101000160405290815f8201548152602001600182015f9054906101000a900473ffffffffffffffffffffffffffffffffffffffff1673ffffffffffffffffffffffffffffffffffffffff1673ffffffffffffffffffffffffffffffffffffffff168152602001600282015f9054906101000a900473ffffffffffffffffffffffffffffffffffffffff1673ffffffffffffffffffffffffffffffffffffffff1673ffffffffffffffffffffffffffffffffffffffff168152602001600382015f9054906101000a900473ffffffffffffffffffffffffffffffffffffffff1673ffffffffffffffffffffffffffffffffffffffff1673ffffffffffffffffffffffffffffffffffffffff1681526020016004820154815260200160058201548152602001600682015f9054906101000a900460ff1615151515815260200160078201548152505090505f816060015173ffffffffffffffffffffffffffffffffffffffff1663c87b56dd83608001516040518263ffffffff1660e01b815260040161218a9190612ddd565b5f60405180830381865afa1580156121a4573d5f5f3e3d5ffd5b505050506040513d5f823e3d601f19601f820116820180604052508101906121cc9190613093565b9050604051806101200160405280835f01518152602001836020015173ffffffffffffffffffffffffffffffffffffffff168152602001836040015173ffffffffffffffffffffffffffffffffffffffff168152602001836060015173ffffffffffffffffffffffffffffffffffffffff168152602001836080015181526020018360a0015181526020018360c00151151581526020018360e00151815260200182815250858581518110612284576122836130da565b5b6020026020010181905250838061229a90612f2e565b94505050505b8080600101915050611ee3565b50819350505050919050565b6122c161238a565b5f73ffffffffffffffffffffffffffffffffffffffff168173ffffffffffffffffffffffffffffffffffffffff1603612331575f6040517f1e4fbdf70000000000000000000000000000000000000000000000000000000081526004016123289190612e05565b60405180910390fd5b61233a81612411565b50565b60025f5403612378576040517f3ee5aeb500000000000000000000000000000000000000000000000000000000815260040160405180910390fd5b60025f81905550565b60015f81905550565b612392612979565b73ffffffffffffffffffffffffffffffffffffffff166123b06110a9565b73ffffffffffffffffffffffffffffffffffffffff161461240f576123d3612979565b6040517f118cdaa70000000000000000000000000000000000000000000000000000000081526004016124069190612e05565b60405180910390fd5b565b5f60015f9054906101000a900473ffffffffffffffffffffffffffffffffffffffff1690508160015f6101000a81548173ffffffffffffffffffffffffffffffffffffffff021916908373ffffffffffffffffffffffffffffffffffffffff1602179055508173ffffffffffffffffffffffffffffffffffffffff168173ffffffffffffffffffffffffffffffffffffffff167f8be0079c531659141344cd1fd0a4f28419497f9722a3daafe3b4186f6b6457e060405160405180910390a35050565b5f831161250d576040517f18d6680800000000000000000000000000000000000000000000000000000000815260040160405180910390fd5b8473ffffffffffffffffffffffffffffffffffffffff166323b872dd3330876040518463ffffffff1660e01b815260040161254a93929190613107565b5f604051808303815f87803b158015612561575f5ffd5b505af1158015612573573d5f5f3e3d5ffd5b50505050811561276b576040518061010001604052808281526020013373ffffffffffffffffffffffffffffffffffffffff1681526020015f73ffffffffffffffffffffffffffffffffffffffff1681526020018673ffffffffffffffffffffffffffffffffffffffff1681526020018581526020018481526020016001151581526020014281525060025f8381526020019081526020015f205f820151815f01556020820151816001015f6101000a81548173ffffffffffffffffffffffffffffffffffffffff021916908373ffffffffffffffffffffffffffffffffffffffff1602179055506040820151816002015f6101000a81548173ffffffffffffffffffffffffffffffffffffffff021916908373ffffffffffffffffffffffffffffffffffffffff1602179055506060820151816003015f6101000a81548173ffffffffffffffffffffffffffffffffffffffff021916908373ffffffffffffffffffffffffffffffffffffffff1602179055506080820151816004015560a0820151816005015560c0820151816006015f6101000a81548160ff02191690831515021790555060e082015181600701559050507fb0fe4922ac99799c17a4130d5c045ba2ecdf6e15b75b9ea84aaf0dc28724a42b813387878760405161275e959493929190613275565b60405180910390a1612972565b60405180610100016040528060035481526020013373ffffffffffffffffffffffffffffffffffffffff1681526020015f73ffffffffffffffffffffffffffffffffffffffff1681526020018673ffffffffffffffffffffffffffffffffffffffff1681526020018581526020018481526020016001151581526020014281525060025f60035481526020019081526020015f205f820151815f01556020820151816001015f6101000a81548173ffffffffffffffffffffffffffffffffffffffff021916908373ffffffffffffffffffffffffffffffffffffffff1602179055506040820151816002015f6101000a81548173ffffffffffffffffffffffffffffffffffffffff021916908373ffffffffffffffffffffffffffffffffffffffff1602179055506060820151816003015f6101000a81548173ffffffffffffffffffffffffffffffffffffffff021916908373ffffffffffffffffffffffffffffffffffffffff1602179055506080820151816004015560a0820151816005015560c0820151816006015f6101000a81548160ff02191690831515021790555060e082015181600701559050507fb0fe4922ac99799c17a4130d5c045ba2ecdf6e15b75b9ea84aaf0dc28724a42b60035433878787604051612952959493929190613275565b60405180910390a160035f81548092919061296c90612f2e565b91905055505b5050505050565b5f33905090565b6040518061012001604052805f81526020015f73ffffffffffffffffffffffffffffffffffffffff1681526020015f73ffffffffffffffffffffffffffffffffffffffff1681526020015f73ffffffffffffffffffffffffffffffffffffffff1681526020015f81526020015f81526020015f151581526020015f8152602001606081525090565b5f81519050919050565b5f82825260208201905092915050565b5f819050602082019050919050565b5f819050919050565b612a4381612a31565b82525050565b5f73ffffffffffffffffffffffffffffffffffffffff82169050919050565b5f612a7282612a49565b9050919050565b612a8281612a68565b82525050565b5f8115159050919050565b612a9c81612a88565b82525050565b5f81519050919050565b5f82825260208201905092915050565b8281835e5f83830152505050565b5f601f19601f8301169050919050565b5f612ae482612aa2565b612aee8185612aac565b9350612afe818560208601612abc565b612b0781612aca565b840191505092915050565b5f61012083015f830151612b285f860182612a3a565b506020830151612b3b6020860182612a79565b506040830151612b4e6040860182612a79565b506060830151612b616060860182612a79565b506080830151612b746080860182612a3a565b5060a0830151612b8760a0860182612a3a565b5060c0830151612b9a60c0860182612a93565b5060e0830151612bad60e0860182612a3a565b50610100830151848203610100860152612bc78282612ada565b9150508091505092915050565b5f612bdf8383612b12565b905092915050565b5f602082019050919050565b5f612bfd82612a08565b612c078185612a12565b935083602082028501612c1985612a22565b805f5b85811015612c545784840389528151612c358582612bd4565b9450612c4083612be7565b925060208a01995050600181019050612c1c565b50829750879550505050505092915050565b5f6020820190508181035f830152612c7e8184612bf3565b905092915050565b5f604051905090565b5f5ffd5b5f5ffd5b612ca081612a31565b8114612caa575f5ffd5b50565b5f81359050612cbb81612c97565b92915050565b5f60208284031215612cd657612cd5612c8f565b5b5f612ce384828501612cad565b91505092915050565b5f61012083015f830151612d025f860182612a3a565b506020830151612d156020860182612a79565b506040830151612d286040860182612a79565b506060830151612d3b6060860182612a79565b506080830151612d4e6080860182612a3a565b5060a0830151612d6160a0860182612a3a565b5060c0830151612d7460c0860182612a93565b5060e0830151612d8760e0860182612a3a565b50610100830151848203610100860152612da18282612ada565b9150508091505092915050565b5f6020820190508181035f830152612dc68184612cec565b905092915050565b612dd781612a31565b82525050565b5f602082019050612df05f830184612dce565b92915050565b612dff81612a68565b82525050565b5f602082019050612e185f830184612df6565b92915050565b612e2781612a68565b8114612e31575f5ffd5b50565b5f81359050612e4281612e1e565b92915050565b5f5f5f60608486031215612e5f57612e5e612c8f565b5b5f612e6c86828701612e34565b9350506020612e7d86828701612cad565b9250506040612e8e86828701612cad565b9150509250925092565b5f5f60408385031215612eae57612ead612c8f565b5b5f612ebb85828601612cad565b9250506020612ecc85828601612cad565b9150509250929050565b5f60208284031215612eeb57612eea612c8f565b5b5f612ef884828501612e34565b91505092915050565b7f4e487b71000000000000000000000000000000000000000000000000000000005f52601160045260245ffd5b5f612f3882612a31565b91507fffffffffffffffffffffffffffffffffffffffffffffffffffffffffffffffff8203612f6a57612f69612f01565b5b600182019050919050565b7f4e487b71000000000000000000000000000000000000000000000000000000005f52604160045260245ffd5b5f5ffd5b5f5ffd5b612fb382612aca565b810181811067ffffffffffffffff82111715612fd257612fd1612f75565b5b80604052505050565b5f612fe4612c86565b9050612ff08282612faa565b919050565b5f67ffffffffffffffff82111561300f5761300e612f75565b5b61301882612aca565b9050602081019050919050565b5f61303761303284612ff5565b612fdb565b90508281526020810184848401111561305357613052612fa6565b5b61305e848285612abc565b509392505050565b5f82601f83011261307a57613079612fa2565b5b815161308a848260208601613025565b91505092915050565b5f602082840312156130a8576130a7612c8f565b5b5f82015167ffffffffffffffff8111156130c5576130c4612c93565b5b6130d184828501613066565b91505092915050565b7f4e487b71000000000000000000000000000000000000000000000000000000005f52603260045260245ffd5b5f60608201905061311a5f830186612df6565b6131276020830185612df6565b6131346040830184612dce565b949350505050565b5f61314682612a31565b915061315183612a31565b925082820261315f81612a31565b9150828204841483151761317657613175612f01565b5b5092915050565b7f4e487b71000000000000000000000000000000000000000000000000000000005f52601260045260245ffd5b5f6131b482612a31565b91506131bf83612a31565b9250826131cf576131ce61317d565b5b828204905092915050565b5f6131e482612a31565b91506131ef83612a31565b925082820390508181111561320757613206612f01565b5b92915050565b5f81905092915050565b50565b5f6132255f8361320d565b915061323082613217565b5f82019050919050565b5f6132448261321a565b9150819050919050565b5f6040820190506132615f830185612dce565b61326e6020830184612df6565b9392505050565b5f60a0820190506132885f830188612dce565b6132956020830187612df6565b6132a26040830186612df6565b6132af6060830185612dce565b6132bc6080830184612dce565b969550505050505056fea2646970667358221220ed1d4bd2a24b07ceaab8282e0ccbe37a021f7aea3ab7c5f095e0883584722f5f64736f6c634300081e0033",
    "linkReferences": {}
  },
  "methodIdentifiers": {
    "buyNFT(uint256)": "51ed8288",
    "cancelListing(uint256)": "305a67a8",
    "getAllListingsWithTokenURI()": "0c29073c",
    "getFeePercent()": "be74264d",
    "getNextListingId()": "39bbf609",
    "getSellerActiveListingsWithTokenURI(address)": "e51fc9ad",
    "getSellerInActiveListingsWithTokenURI(address)": "e61a3b39",
    "getSingleListingWithTokenURI(uint256)": "103c1bb9",
    "getUserPurchasesWithTokenURI(address)": "d6959fb3",
    "listNFT(address,uint256,uint256)": "ad05f1b4",
    "owner()": "8da5cb5b",
    "relistPurchasedNFT(uint256,uint256)": "bd823aba",
    "renounceOwnership()": "715018a6",
    "setFeePercent(uint256)": "7ce3489b",
    "transferOwnership(address)": "f2fde38b"
  },
  "id": 42
}