{
  "abi": [
    {
      "type": "constructor",
      "inputs": [],
      "stateMutability": "nonpayable"
    },
    {
      "type": "receive",
      "stateMutability": "payable"
    },
    {
      "type": "function",
      "name": "owner",
      "inputs": [],
      "outputs": [
        {
          "name": "",
          "type": "address",
          "internalType": "address"
        }
      ],
      "stateMutability": "view"
    },
    {
      "type": "function",
      "name": "renounceOwnership",
      "inputs": [],
      "outputs": [],
      "stateMutability": "nonpayable"
    },
    {
      "type": "function",
      "name": "transferOwnership",
      "inputs": [
        {
          "name": "newOwner",
          "type": "address",
          "internalType": "address"
        }
      ],
      "outputs": [],
      "stateMutability": "nonpayable"
    },
    {
      "type": "function",
      "name": "withdraw",
      "inputs": [
        {
          "name": "to",
          "type": "address",
          "internalType": "address"
        }
      ],
      "outputs": [],
      "stateMutability": "nonpayable"
    },
    {
      "type": "event",
      "name": "OwnershipTransferred",
      "inputs": [
        {
          "name": "previousOwner",
          "type": "address",
          "indexed": true,
          "internalType": "address"
        },
        {
          "name": "newOwner",
          "type": "address",
          "indexed": true,
          "internalType": "address"
        }
      ],
      "anonymous": false
    },
    {
      "type": "error",
      "name": "OwnableInvalidOwner",
      "inputs": [
        {
          "name": "owner",
          "type": "address",
          "internalType": "address"
        }
      ]
    },
    {
      "type": "error",
      "name": "OwnableUnauthorizedAccount",
      "inputs": [
        {
          "name": "account",
          "type": "address",
          "internalType": "address"
        }
      ]
    },
    {
      "type": "error",
      "name": "Treasury__NoFunds",
      "inputs": []
    },
    {
      "type": "error",
      "name": "Treasury__TransferFailed",
      "inputs": []
    }
  ],
  "bytecode": {
    "object": "0x608060405234801561000f575f5ffd5b50335f73ffffffffffffffffffffffffffffffffffffffff168173ffffffffffffffffffffffffffffffffffffffff1603610081575f6040517f1e4fbdf70000000000000000000000000000000000000000000000000000000081526004016100789190610196565b60405180910390fd5b6100908161009660201b60201c565b506101af565b5f5f5f9054906101000a900473ffffffffffffffffffffffffffffffffffffffff169050815f5f6101000a81548173ffffffffffffffffffffffffffffffffffffffff021916908373ffffffffffffffffffffffffffffffffffffffff1602179055508173ffffffffffffffffffffffffffffffffffffffff168173ffffffffffffffffffffffffffffffffffffffff167f8be0079c531659141344cd1fd0a4f28419497f9722a3daafe3b4186f6b6457e060405160405180910390a35050565b5f73ffffffffffffffffffffffffffffffffffffffff82169050919050565b5f61018082610157565b9050919050565b61019081610176565b82525050565b5f6020820190506101a95f830184610187565b92915050565b6104f6806101bc5f395ff3fe608060405260043610610042575f3560e01c806351cff8d91461004d578063715018a6146100755780638da5cb5b1461008b578063f2fde38b146100b557610049565b3661004957005b5f5ffd5b348015610058575f5ffd5b50610073600480360381019061006e919061042c565b6100dd565b005b348015610080575f5ffd5b506100896101c1565b005b348015610096575f5ffd5b5061009f6101d4565b6040516100ac9190610466565b60405180910390f35b3480156100c0575f5ffd5b506100db60048036038101906100d6919061042c565b6101fb565b005b6100e561027f565b5f470361011e576040517f62119db100000000000000000000000000000000000000000000000000000000815260040160405180910390fd5b5f8173ffffffffffffffffffffffffffffffffffffffff1647604051610143906104ac565b5f6040518083038185875af1925050503d805f811461017d576040519150601f19603f3d011682016040523d82523d5f602084013e610182565b606091505b50509050806101bd576040517f060245be00000000000000000000000000000000000000000000000000000000815260040160405180910390fd5b5050565b6101c961027f565b6101d25f610306565b565b5f5f5f9054906101000a900473ffffffffffffffffffffffffffffffffffffffff16905090565b61020361027f565b5f73ffffffffffffffffffffffffffffffffffffffff168173ffffffffffffffffffffffffffffffffffffffff1603610273575f6040517f1e4fbdf700000000000000000000000000000000000000000000000000000000815260040161026a9190610466565b60405180910390fd5b61027c81610306565b50565b6102876103c7565b73ffffffffffffffffffffffffffffffffffffffff166102a56101d4565b73ffffffffffffffffffffffffffffffffffffffff1614610304576102c86103c7565b6040517f118cdaa70000000000000000000000000000000000000000000000000000000081526004016102fb9190610466565b60405180910390fd5b565b5f5f5f9054906101000a900473ffffffffffffffffffffffffffffffffffffffff169050815f5f6101000a81548173ffffffffffffffffffffffffffffffffffffffff021916908373ffffffffffffffffffffffffffffffffffffffff1602179055508173ffffffffffffffffffffffffffffffffffffffff168173ffffffffffffffffffffffffffffffffffffffff167f8be0079c531659141344cd1fd0a4f28419497f9722a3daafe3b4186f6b6457e060405160405180910390a35050565b5f33905090565b5f5ffd5b5f73ffffffffffffffffffffffffffffffffffffffff82169050919050565b5f6103fb826103d2565b9050919050565b61040b816103f1565b8114610415575f5ffd5b50565b5f8135905061042681610402565b92915050565b5f60208284031215610441576104406103ce565b5b5f61044e84828501610418565b91505092915050565b610460816103f1565b82525050565b5f6020820190506104795f830184610457565b92915050565b5f81905092915050565b50565b5f6104975f8361047f565b91506104a282610489565b5f82019050919050565b5f6104b68261048c565b915081905091905056fea26469706673582212207f1edd2bc79588eee1cd84801d96bc3df402ff0eca5b4b6611c748cd3a04e42464736f6c634300081e0033",
    "linkReferences": {}
  },
  "methodIdentifiers": {
    "owner()": "8da5cb5b",
    "renounceOwnership()": "715018a6",
    "transferOwnership(address)": "f2fde38b",
    "withdraw(address)": "51cff8d9"
  },
  "id": 43
}